{
  "contractName": "landRecords",
  "abi": [
    {
      "inputs": [],
      "stateMutability": "nonpayable",
      "type": "constructor"
    },
    {
      "inputs": [
        {
          "internalType": "address",
          "name": "",
          "type": "address"
        }
      ],
      "name": "admins",
      "outputs": [
        {
          "internalType": "string",
          "name": "name",
          "type": "string"
        },
        {
          "internalType": "string",
          "name": "district",
          "type": "string"
        }
      ],
      "stateMutability": "view",
      "type": "function",
      "constant": true
    },
    {
      "inputs": [
        {
          "internalType": "string",
          "name": "",
          "type": "string"
        },
        {
          "internalType": "uint256",
          "name": "",
          "type": "uint256"
        }
      ],
      "name": "allSells",
      "outputs": [
        {
          "internalType": "string",
          "name": "serveyNo",
          "type": "string"
        },
        {
          "internalType": "address",
          "name": "owner",
          "type": "address"
        },
        {
          "internalType": "address",
          "name": "buyer",
          "type": "address"
        },
        {
          "internalType": "uint256",
          "name": "price",
          "type": "uint256"
        },
        {
          "internalType": "bool",
          "name": "sellerApproval",
          "type": "bool"
        },
        {
          "internalType": "bool",
          "name": "adminApproval",
          "type": "bool"
        }
      ],
      "stateMutability": "view",
      "type": "function",
      "constant": true
    },
    {
      "inputs": [
        {
          "internalType": "bytes32",
          "name": "",
          "type": "bytes32"
        }
      ],
      "name": "lands",
      "outputs": [
        {
          "internalType": "string",
          "name": "serveyNo",
          "type": "string"
        },
        {
          "internalType": "string",
          "name": "location",
          "type": "string"
        },
        {
          "internalType": "uint256",
          "name": "area",
          "type": "uint256"
        },
        {
          "internalType": "uint256",
          "name": "purchaseEpoch",
          "type": "uint256"
        },
        {
          "internalType": "address",
          "name": "owner",
          "type": "address"
        },
        {
          "internalType": "string",
          "name": "district",
          "type": "string"
        },
        {
          "internalType": "bool",
          "name": "isVerified",
          "type": "bool"
        },
        {
          "internalType": "bool",
          "name": "availableForSale",
          "type": "bool"
        }
      ],
      "stateMutability": "view",
      "type": "function",
      "constant": true
    },
    {
      "inputs": [
        {
          "internalType": "address",
          "name": "",
          "type": "address"
        }
      ],
      "name": "users",
      "outputs": [
        {
          "internalType": "string",
          "name": "name",
          "type": "string"
        },
        {
          "internalType": "string",
          "name": "docHash",
          "type": "string"
        },
        {
          "internalType": "string",
          "name": "district",
          "type": "string"
        },
        {
          "internalType": "bool",
          "name": "isVerified",
          "type": "bool"
        }
      ],
      "stateMutability": "view",
      "type": "function",
      "constant": true
    },
    {
      "inputs": [
        {
          "internalType": "string",
          "name": "source",
          "type": "string"
        }
      ],
      "name": "stringToBytes32",
      "outputs": [
        {
          "internalType": "bytes32",
          "name": "result",
          "type": "bytes32"
        }
      ],
      "stateMutability": "pure",
      "type": "function",
      "constant": true
    },
    {
      "inputs": [
        {
          "internalType": "address",
          "name": "_address",
          "type": "address"
        },
        {
          "internalType": "string",
          "name": "_name",
          "type": "string"
        },
        {
          "internalType": "string",
          "name": "_district",
          "type": "string"
        }
      ],
      "name": "createModifyAdmin",
      "outputs": [],
      "stateMutability": "nonpayable",
      "type": "function"
    },
    {
      "inputs": [
        {
          "internalType": "string",
          "name": "_name",
          "type": "string"
        },
        {
          "internalType": "string",
          "name": "_docHash",
          "type": "string"
        },
        {
          "internalType": "string",
          "name": "_district",
          "type": "string"
        }
      ],
      "name": "regUser",
      "outputs": [],
      "stateMutability": "nonpayable",
      "type": "function"
    },
    {
      "inputs": [
        {
          "internalType": "address",
          "name": "_address",
          "type": "address"
        },
        {
          "internalType": "string",
          "name": "_name",
          "type": "string"
        },
        {
          "internalType": "string",
          "name": "_docHash",
          "type": "string"
        },
        {
          "internalType": "string",
          "name": "_district",
          "type": "string"
        },
        {
          "internalType": "bool",
          "name": "_isVerified",
          "type": "bool"
        }
      ],
      "name": "modifyUser",
      "outputs": [],
      "stateMutability": "nonpayable",
      "type": "function"
    },
    {
      "inputs": [
        {
          "internalType": "string",
          "name": "_serveyNo",
          "type": "string"
        },
        {
          "internalType": "string",
          "name": "_location",
          "type": "string"
        },
        {
          "internalType": "uint256",
          "name": "_area",
          "type": "uint256"
        },
        {
          "internalType": "uint256",
          "name": "_purchaseEpoch",
          "type": "uint256"
        },
        {
          "internalType": "string",
          "name": "_district",
          "type": "string"
        }
      ],
      "name": "regLand",
      "outputs": [],
      "stateMutability": "nonpayable",
      "type": "function"
    },
    {
      "inputs": [
        {
          "internalType": "string",
          "name": "_serveyNo",
          "type": "string"
        },
        {
          "internalType": "string",
          "name": "_location",
          "type": "string"
        },
        {
          "internalType": "uint256",
          "name": "_area",
          "type": "uint256"
        },
        {
          "internalType": "uint256",
          "name": "_purchaseEpoch",
          "type": "uint256"
        },
        {
          "internalType": "bool",
          "name": "_isVerified",
          "type": "bool"
        }
      ],
      "name": "modifyLand",
      "outputs": [],
      "stateMutability": "nonpayable",
      "type": "function"
    },
    {
      "inputs": [
        {
          "internalType": "string",
          "name": "_serveyNo",
          "type": "string"
        }
      ],
      "name": "makeAvailable",
      "outputs": [],
      "stateMutability": "nonpayable",
      "type": "function"
    },
    {
      "inputs": [
        {
          "internalType": "string",
          "name": "_serveyNo",
          "type": "string"
        }
      ],
      "name": "cancelAvailable",
      "outputs": [],
      "stateMutability": "nonpayable",
      "type": "function"
    },
    {
      "inputs": [
        {
          "internalType": "string",
          "name": "_serveyNo",
          "type": "string"
        },
        {
          "internalType": "uint256",
          "name": "_price",
          "type": "uint256"
        }
      ],
      "name": "requestToBuy",
      "outputs": [],
      "stateMutability": "nonpayable",
      "type": "function"
    },
    {
      "inputs": [
        {
          "internalType": "string",
          "name": "_serveyNo",
          "type": "string"
        }
      ],
      "name": "approveSell",
      "outputs": [],
      "stateMutability": "nonpayable",
      "type": "function"
    },
    {
      "inputs": [
        {
          "internalType": "string",
          "name": "_serveyNo",
          "type": "string"
        }
      ],
      "name": "approveAdmin",
      "outputs": [],
      "stateMutability": "nonpayable",
      "type": "function"
    },
    {
      "inputs": [
        {
          "internalType": "string",
          "name": "_serveyNo",
          "type": "string"
        }
      ],
      "name": "confirmSell",
      "outputs": [],
      "stateMutability": "nonpayable",
      "type": "function"
    }
  ],
  "bytecode": "0x608060405234801561001057600080fd5b5033600460006101000a81548173ffffffffffffffffffffffffffffffffffffffff021916908373ffffffffffffffffffffffffffffffffffffffff160217905550614d18806100616000396000f3fe608060405234801561001057600080fd5b50600436106101005760003560e01c8063883dfc4511610097578063cfb5192811610066578063cfb51928146102b5578063d850c3a5146102e5578063e551248a14610301578063e8a3df351461031d57610100565b8063883dfc451461022e57806399b79dff1461024a578063a87430ba14610266578063c41dbcb01461029957610100565b80634d4fc7ea116100d35780634d4fc7ea146101a557806357e118c3146101c15780635d1e4870146101f657806372af308d1461021257610100565b8063139e38b414610105578063321c383a1461013c57806341f4c11a14610158578063429b62e514610174575b600080fd5b61011f600480360381019061011a9190613e70565b610339565b604051610133989796959493929190613fab565b60405180910390f35b610156600480360381019061015191906141cb565b610553565b005b610172600480360381019061016d919061429a565b6107f5565b005b61018e60048036038101906101899190614341565b610b42565b60405161019c92919061436e565b60405180910390f35b6101bf60048036038101906101ba91906143d1565b610c76565b005b6101db60048036038101906101d691906144a0565b6112e2565b6040516101ed969594939291906144fc565b60405180910390f35b610210600480360381019061020b9190614564565b611433565b005b61022c60048036038101906102279190614564565b6119db565b005b61024860048036038101906102439190614564565b6121e4565b005b610264600480360381019061025f9190614564565b612510565b005b610280600480360381019061027b9190614341565b612887565b60405161029094939291906145ad565b60405180910390f35b6102b360048036038101906102ae91906144a0565b612a5c565b005b6102cf60048036038101906102ca9190614564565b612f26565b6040516102dc9190614616565b60405180910390f35b6102ff60048036038101906102fa9190614631565b612f50565b005b61031b60048036038101906103169190614564565b613075565b005b610337600480360381019061033291906146bc565b61376e565b005b600260205280600052604060002060009150905080600001805461035c9061479e565b80601f01602080910402602001604051908101604052809291908181526020018280546103889061479e565b80156103d55780601f106103aa576101008083540402835291602001916103d5565b820191906000526020600020905b8154815290600101906020018083116103b857829003601f168201915b5050505050908060010180546103ea9061479e565b80601f01602080910402602001604051908101604052809291908181526020018280546104169061479e565b80156104635780601f1061043857610100808354040283529160200191610463565b820191906000526020600020905b81548152906001019060200180831161044657829003601f168201915b5050505050908060020154908060030154908060040160009054906101000a900473ffffffffffffffffffffffffffffffffffffffff16908060050180546104aa9061479e565b80601f01602080910402602001604051908101604052809291908181526020018280546104d69061479e565b80156105235780601f106104f857610100808354040283529160200191610523565b820191906000526020600020905b81548152906001019060200180831161050657829003601f168201915b5050505050908060060160009054906101000a900460ff16908060060160019054906101000a900460ff16905088565b60008060003373ffffffffffffffffffffffffffffffffffffffff1673ffffffffffffffffffffffffffffffffffffffff1681526020019081526020016000206040518060400160405290816000820180546105ae9061479e565b80601f01602080910402602001604051908101604052809291908181526020018280546105da9061479e565b80156106275780601f106105fc57610100808354040283529160200191610627565b820191906000526020600020905b81548152906001019060200180831161060a57829003601f168201915b505050505081526020016001820180546106409061479e565b80601f016020809104026020016040519081016040528092919081815260200182805461066c9061479e565b80156106b95780601f1061068e576101008083540402835291602001916106b9565b820191906000526020600020905b81548152906001019060200180831161069c57829003601f168201915b50505050508152505090506106d2816020015184613d28565b610711576040517f08c379a00000000000000000000000000000000000000000000000000000000081526004016107089061481c565b60405180910390fd5b6040518060800160405280868152602001858152602001848152602001831515815250600160008873ffffffffffffffffffffffffffffffffffffffff1673ffffffffffffffffffffffffffffffffffffffff168152602001908152602001600020600082015181600001908051906020019061078f929190613d43565b5060208201518160010190805190602001906107ac929190613d43565b5060408201518160020190805190602001906107c9929190613d43565b5060608201518160030160006101000a81548160ff021916908315150217905550905050505050505050565b6000600160003373ffffffffffffffffffffffffffffffffffffffff1673ffffffffffffffffffffffffffffffffffffffff1681526020019081526020016000206040518060800160405290816000820180546108519061479e565b80601f016020809104026020016040519081016040528092919081815260200182805461087d9061479e565b80156108ca5780601f1061089f576101008083540402835291602001916108ca565b820191906000526020600020905b8154815290600101906020018083116108ad57829003601f168201915b505050505081526020016001820180546108e39061479e565b80601f016020809104026020016040519081016040528092919081815260200182805461090f9061479e565b801561095c5780601f106109315761010080835404028352916020019161095c565b820191906000526020600020905b81548152906001019060200180831161093f57829003601f168201915b505050505081526020016002820180546109759061479e565b80601f01602080910402602001604051908101604052809291908181526020018280546109a19061479e565b80156109ee5780601f106109c3576101008083540402835291602001916109ee565b820191906000526020600020905b8154815290600101906020018083116109d157829003601f168201915b505050505081526020016003820160009054906101000a900460ff1615151515815250509050600015158160600151151514610a5f576040517f08c379a0000000000000000000000000000000000000000000000000000000008152600401610a5690614888565b60405180910390fd5b604051806080016040528085815260200184815260200183815260200160001515815250600160003373ffffffffffffffffffffffffffffffffffffffff1673ffffffffffffffffffffffffffffffffffffffff1681526020019081526020016000206000820151816000019080519060200190610ade929190613d43565b506020820151816001019080519060200190610afb929190613d43565b506040820151816002019080519060200190610b18929190613d43565b5060608201518160030160006101000a81548160ff02191690831515021790555090505050505050565b6000602052806000526040600020600091509050806000018054610b659061479e565b80601f0160208091040260200160405190810160405280929190818152602001828054610b919061479e565b8015610bde5780601f10610bb357610100808354040283529160200191610bde565b820191906000526020600020905b815481529060010190602001808311610bc157829003601f168201915b505050505090806001018054610bf39061479e565b80601f0160208091040260200160405190810160405280929190818152602001828054610c1f9061479e565b8015610c6c5780601f10610c4157610100808354040283529160200191610c6c565b820191906000526020600020905b815481529060010190602001808311610c4f57829003601f168201915b5050505050905082565b6000610c8186612f26565b905060006002600083815260200190815260200160002060405180610100016040529081600082018054610cb49061479e565b80601f0160208091040260200160405190810160405280929190818152602001828054610ce09061479e565b8015610d2d5780601f10610d0257610100808354040283529160200191610d2d565b820191906000526020600020905b815481529060010190602001808311610d1057829003601f168201915b50505050508152602001600182018054610d469061479e565b80601f0160208091040260200160405190810160405280929190818152602001828054610d729061479e565b8015610dbf5780601f10610d9457610100808354040283529160200191610dbf565b820191906000526020600020905b815481529060010190602001808311610da257829003601f168201915b5050505050815260200160028201548152602001600382015481526020016004820160009054906101000a900473ffffffffffffffffffffffffffffffffffffffff1673ffffffffffffffffffffffffffffffffffffffff1673ffffffffffffffffffffffffffffffffffffffff168152602001600582018054610e429061479e565b80601f0160208091040260200160405190810160405280929190818152602001828054610e6e9061479e565b8015610ebb5780601f10610e9057610100808354040283529160200191610ebb565b820191906000526020600020905b815481529060010190602001808311610e9e57829003601f168201915b505050505081526020016006820160009054906101000a900460ff161515151581526020016006820160019054906101000a900460ff16151515158152505090506000600160003373ffffffffffffffffffffffffffffffffffffffff1673ffffffffffffffffffffffffffffffffffffffff168152602001908152602001600020604051806080016040529081600082018054610f589061479e565b80601f0160208091040260200160405190810160405280929190818152602001828054610f849061479e565b8015610fd15780601f10610fa657610100808354040283529160200191610fd1565b820191906000526020600020905b815481529060010190602001808311610fb457829003601f168201915b50505050508152602001600182018054610fea9061479e565b80601f01602080910402602001604051908101604052809291908181526020018280546110169061479e565b80156110635780601f1061103857610100808354040283529160200191611063565b820191906000526020600020905b81548152906001019060200180831161104657829003601f168201915b5050505050815260200160028201805461107c9061479e565b80601f01602080910402602001604051908101604052809291908181526020018280546110a89061479e565b80156110f55780601f106110ca576101008083540402835291602001916110f5565b820191906000526020600020905b8154815290600101906020018083116110d857829003601f168201915b505050505081526020016003820160009054906101000a900460ff1615151515815250509050600015158260c00151151514801561113b57506001151581606001511515145b61117a576040517f08c379a00000000000000000000000000000000000000000000000000000000081526004016111719061491a565b60405180910390fd5b6040518061010001604052808981526020018881526020018781526020018681526020013373ffffffffffffffffffffffffffffffffffffffff168152602001858152602001600015158152602001600015158152506002600085815260200190815260200160002060008201518160000190805190602001906111ff929190613d43565b50602082015181600101908051906020019061121c929190613d43565b50604082015181600201556060820151816003015560808201518160040160006101000a81548173ffffffffffffffffffffffffffffffffffffffff021916908373ffffffffffffffffffffffffffffffffffffffff16021790555060a0820151816005019080519060200190611294929190613d43565b5060c08201518160060160006101000a81548160ff02191690831515021790555060e08201518160060160016101000a81548160ff0219169083151502179055509050505050505050505050565b600382805160208101820180518482526020830160208501208183528095505050505050818154811061131457600080fd5b9060005260206000209060050201600091509150508060000180546113389061479e565b80601f01602080910402602001604051908101604052809291908181526020018280546113649061479e565b80156113b15780601f10611386576101008083540402835291602001916113b1565b820191906000526020600020905b81548152906001019060200180831161139457829003601f168201915b5050505050908060010160009054906101000a900473ffffffffffffffffffffffffffffffffffffffff16908060020160009054906101000a900473ffffffffffffffffffffffffffffffffffffffff16908060030154908060040160009054906101000a900460ff16908060040160019054906101000a900460ff16905086565b600061143e82612f26565b9050600060026000838152602001908152602001600020604051806101000160405290816000820180546114719061479e565b80601f016020809104026020016040519081016040528092919081815260200182805461149d9061479e565b80156114ea5780601f106114bf576101008083540402835291602001916114ea565b820191906000526020600020905b8154815290600101906020018083116114cd57829003601f168201915b505050505081526020016001820180546115039061479e565b80601f016020809104026020016040519081016040528092919081815260200182805461152f9061479e565b801561157c5780601f106115515761010080835404028352916020019161157c565b820191906000526020600020905b81548152906001019060200180831161155f57829003601f168201915b5050505050815260200160028201548152602001600382015481526020016004820160009054906101000a900473ffffffffffffffffffffffffffffffffffffffff1673ffffffffffffffffffffffffffffffffffffffff1673ffffffffffffffffffffffffffffffffffffffff1681526020016005820180546115ff9061479e565b80601f016020809104026020016040519081016040528092919081815260200182805461162b9061479e565b80156116785780601f1061164d57610100808354040283529160200191611678565b820191906000526020600020905b81548152906001019060200180831161165b57829003601f168201915b505050505081526020016006820160009054906101000a900460ff161515151581526020016006820160019054906101000a900460ff16151515158152505090503373ffffffffffffffffffffffffffffffffffffffff16816080015173ffffffffffffffffffffffffffffffffffffffff161461172b576040517f08c379a000000000000000000000000000000000000000000000000000000000815260040161172290614986565b60405180910390fd5b600060038260a0015160405161174191906149e2565b9081526020016040518091039020805480602002602001604051908101604052809291908181526020016000905b8282101561191f57838290600052602060002090600502016040518060c00160405290816000820180546117a29061479e565b80601f01602080910402602001604051908101604052809291908181526020018280546117ce9061479e565b801561181b5780601f106117f05761010080835404028352916020019161181b565b820191906000526020600020905b8154815290600101906020018083116117fe57829003601f168201915b505050505081526020016001820160009054906101000a900473ffffffffffffffffffffffffffffffffffffffff1673ffffffffffffffffffffffffffffffffffffffff1673ffffffffffffffffffffffffffffffffffffffff1681526020016002820160009054906101000a900473ffffffffffffffffffffffffffffffffffffffff1673ffffffffffffffffffffffffffffffffffffffff1673ffffffffffffffffffffffffffffffffffffffff168152602001600382015481526020016004820160009054906101000a900460ff161515151581526020016004820160019054906101000a900460ff1615151515815250508152602001906001019061176f565b50505050905060005b815181101561197657611959828281518110611947576119466149f9565b5b60200260200101516000015186613d28565b1561196357611976565b808061196e90614a57565b915050611928565b600160038460a0015160405161198c91906149e2565b908152602001604051809103902082815481106119ac576119ab6149f9565b5b906000526020600020906005020160040160006101000a81548160ff0219169083151502179055505050505050565b60006119e682612f26565b905060006002600083815260200190815260200160002060405180610100016040529081600082018054611a199061479e565b80601f0160208091040260200160405190810160405280929190818152602001828054611a459061479e565b8015611a925780601f10611a6757610100808354040283529160200191611a92565b820191906000526020600020905b815481529060010190602001808311611a7557829003601f168201915b50505050508152602001600182018054611aab9061479e565b80601f0160208091040260200160405190810160405280929190818152602001828054611ad79061479e565b8015611b245780601f10611af957610100808354040283529160200191611b24565b820191906000526020600020905b815481529060010190602001808311611b0757829003601f168201915b5050505050815260200160028201548152602001600382015481526020016004820160009054906101000a900473ffffffffffffffffffffffffffffffffffffffff1673ffffffffffffffffffffffffffffffffffffffff1673ffffffffffffffffffffffffffffffffffffffff168152602001600582018054611ba79061479e565b80601f0160208091040260200160405190810160405280929190818152602001828054611bd39061479e565b8015611c205780601f10611bf557610100808354040283529160200191611c20565b820191906000526020600020905b815481529060010190602001808311611c0357829003601f168201915b505050505081526020016006820160009054906101000a900460ff161515151581526020016006820160019054906101000a900460ff16151515158152505090503373ffffffffffffffffffffffffffffffffffffffff16816080015173ffffffffffffffffffffffffffffffffffffffff1614611cd3576040517f08c379a0000000000000000000000000000000000000000000000000000000008152600401611cca90614986565b60405180910390fd5b600060038260a00151604051611ce991906149e2565b9081526020016040518091039020805480602002602001604051908101604052809291908181526020016000905b82821015611ec757838290600052602060002090600502016040518060c0016040529081600082018054611d4a9061479e565b80601f0160208091040260200160405190810160405280929190818152602001828054611d769061479e565b8015611dc35780601f10611d9857610100808354040283529160200191611dc3565b820191906000526020600020905b815481529060010190602001808311611da657829003601f168201915b505050505081526020016001820160009054906101000a900473ffffffffffffffffffffffffffffffffffffffff1673ffffffffffffffffffffffffffffffffffffffff1673ffffffffffffffffffffffffffffffffffffffff1681526020016002820160009054906101000a900473ffffffffffffffffffffffffffffffffffffffff1673ffffffffffffffffffffffffffffffffffffffff1673ffffffffffffffffffffffffffffffffffffffff168152602001600382015481526020016004820160009054906101000a900460ff161515151581526020016004820160019054906101000a900460ff16151515158152505081526020019060010190611d17565b50505050905060005b8151811015611f1e57611f01828281518110611eef57611eee6149f9565b5b60200260200101516000015186613d28565b15611f0b57611f1e565b8080611f1690614a57565b915050611ed0565b6001151560038460a00151604051611f3691906149e2565b90815260200160405180910390208281548110611f5657611f556149f9565b5b906000526020600020906005020160040160019054906101000a900460ff16151514611fb7576040517f08c379a0000000000000000000000000000000000000000000000000000000008152600401611fae90614aec565b60405180910390fd5b6001151560038460a00151604051611fcf91906149e2565b90815260200160405180910390208281548110611fef57611fee6149f9565b5b906000526020600020906005020160040160009054906101000a900460ff16151514612050576040517f08c379a000000000000000000000000000000000000000000000000000000000815260040161204790614b58565b60405180910390fd5b60038360a0015160405161206491906149e2565b90815260200160405180910390208181548110612084576120836149f9565b5b906000526020600020906005020160020160009054906101000a900473ffffffffffffffffffffffffffffffffffffffff166002600086815260200190815260200160002060040160006101000a81548173ffffffffffffffffffffffffffffffffffffffff021916908373ffffffffffffffffffffffffffffffffffffffff16021790555060038360a0015160405161211e91906149e2565b9081526020016040518091039020818154811061213e5761213d6149f9565b5b90600052602060002090600502016000808201600061215d9190613dc9565b6001820160006101000a81549073ffffffffffffffffffffffffffffffffffffffff02191690556002820160006101000a81549073ffffffffffffffffffffffffffffffffffffffff021916905560038201600090556004820160006101000a81549060ff02191690556004820160016101000a81549060ff021916905550505050505050565b60006121ef82612f26565b9050600060026000838152602001908152602001600020604051806101000160405290816000820180546122229061479e565b80601f016020809104026020016040519081016040528092919081815260200182805461224e9061479e565b801561229b5780601f106122705761010080835404028352916020019161229b565b820191906000526020600020905b81548152906001019060200180831161227e57829003601f168201915b505050505081526020016001820180546122b49061479e565b80601f01602080910402602001604051908101604052809291908181526020018280546122e09061479e565b801561232d5780601f106123025761010080835404028352916020019161232d565b820191906000526020600020905b81548152906001019060200180831161231057829003601f168201915b5050505050815260200160028201548152602001600382015481526020016004820160009054906101000a900473ffffffffffffffffffffffffffffffffffffffff1673ffffffffffffffffffffffffffffffffffffffff1673ffffffffffffffffffffffffffffffffffffffff1681526020016005820180546123b09061479e565b80601f01602080910402602001604051908101604052809291908181526020018280546123dc9061479e565b80156124295780601f106123fe57610100808354040283529160200191612429565b820191906000526020600020905b81548152906001019060200180831161240c57829003601f168201915b505050505081526020016006820160009054906101000a900460ff161515151581526020016006820160019054906101000a900460ff16151515158152505090503373ffffffffffffffffffffffffffffffffffffffff16816080015173ffffffffffffffffffffffffffffffffffffffff16146124dc576040517f08c379a00000000000000000000000000000000000000000000000000000000081526004016124d390614986565b60405180910390fd5b60006002600084815260200190815260200160002060060160016101000a81548160ff021916908315150217905550505050565b600061251b82612f26565b90506000600260008381526020019081526020016000206040518061010001604052908160008201805461254e9061479e565b80601f016020809104026020016040519081016040528092919081815260200182805461257a9061479e565b80156125c75780601f1061259c576101008083540402835291602001916125c7565b820191906000526020600020905b8154815290600101906020018083116125aa57829003601f168201915b505050505081526020016001820180546125e09061479e565b80601f016020809104026020016040519081016040528092919081815260200182805461260c9061479e565b80156126595780601f1061262e57610100808354040283529160200191612659565b820191906000526020600020905b81548152906001019060200180831161263c57829003601f168201915b5050505050815260200160028201548152602001600382015481526020016004820160009054906101000a900473ffffffffffffffffffffffffffffffffffffffff1673ffffffffffffffffffffffffffffffffffffffff1673ffffffffffffffffffffffffffffffffffffffff1681526020016005820180546126dc9061479e565b80601f01602080910402602001604051908101604052809291908181526020018280546127089061479e565b80156127555780601f1061272a57610100808354040283529160200191612755565b820191906000526020600020905b81548152906001019060200180831161273857829003601f168201915b505050505081526020016006820160009054906101000a900460ff161515151581526020016006820160019054906101000a900460ff16151515158152505090503373ffffffffffffffffffffffffffffffffffffffff16816080015173ffffffffffffffffffffffffffffffffffffffff1614612808576040517f08c379a00000000000000000000000000000000000000000000000000000000081526004016127ff90614986565b60405180910390fd5b600115158160c00151151514612853576040517f08c379a000000000000000000000000000000000000000000000000000000000815260040161284a90614bc4565b60405180910390fd5b60016002600084815260200190815260200160002060060160016101000a81548160ff021916908315150217905550505050565b60016020528060005260406000206000915090508060000180546128aa9061479e565b80601f01602080910402602001604051908101604052809291908181526020018280546128d69061479e565b80156129235780601f106128f857610100808354040283529160200191612923565b820191906000526020600020905b81548152906001019060200180831161290657829003601f168201915b5050505050908060010180546129389061479e565b80601f01602080910402602001604051908101604052809291908181526020018280546129649061479e565b80156129b15780601f10612986576101008083540402835291602001916129b1565b820191906000526020600020905b81548152906001019060200180831161299457829003601f168201915b5050505050908060020180546129c69061479e565b80601f01602080910402602001604051908101604052809291908181526020018280546129f29061479e565b8015612a3f5780601f10612a1457610100808354040283529160200191612a3f565b820191906000526020600020905b815481529060010190602001808311612a2257829003601f168201915b5050505050908060030160009054906101000a900460ff16905084565b6000612a6783612f26565b905060006002600083815260200190815260200160002060405180610100016040529081600082018054612a9a9061479e565b80601f0160208091040260200160405190810160405280929190818152602001828054612ac69061479e565b8015612b135780601f10612ae857610100808354040283529160200191612b13565b820191906000526020600020905b815481529060010190602001808311612af657829003601f168201915b50505050508152602001600182018054612b2c9061479e565b80601f0160208091040260200160405190810160405280929190818152602001828054612b589061479e565b8015612ba55780601f10612b7a57610100808354040283529160200191612ba5565b820191906000526020600020905b815481529060010190602001808311612b8857829003601f168201915b5050505050815260200160028201548152602001600382015481526020016004820160009054906101000a900473ffffffffffffffffffffffffffffffffffffffff1673ffffffffffffffffffffffffffffffffffffffff1673ffffffffffffffffffffffffffffffffffffffff168152602001600582018054612c289061479e565b80601f0160208091040260200160405190810160405280929190818152602001828054612c549061479e565b8015612ca15780601f10612c7657610100808354040283529160200191612ca1565b820191906000526020600020905b815481529060010190602001808311612c8457829003601f168201915b505050505081526020016006820160009054906101000a900460ff161515151581526020016006820160019054906101000a900460ff1615151515815250509050600115156002600084815260200190815260200160002060060160019054906101000a900460ff16151514612d4c576040517f08c379a0000000000000000000000000000000000000000000000000000000008152600401612d4390614c56565b60405180910390fd5b60038160a00151604051612d6091906149e2565b90815260200160405180910390206040518060c00160405280868152602001836080015173ffffffffffffffffffffffffffffffffffffffff1681526020013373ffffffffffffffffffffffffffffffffffffffff1681526020018581526020016000151581526020016000151581525090806001815401808255809150506001900390600052602060002090600502016000909190919091506000820151816000019080519060200190612e16929190613d43565b5060208201518160010160006101000a81548173ffffffffffffffffffffffffffffffffffffffff021916908373ffffffffffffffffffffffffffffffffffffffff16021790555060408201518160020160006101000a81548173ffffffffffffffffffffffffffffffffffffffff021916908373ffffffffffffffffffffffffffffffffffffffff1602179055506060820151816003015560808201518160040160006101000a81548160ff02191690831515021790555060a08201518160040160016101000a81548160ff021916908315150217905550505060006002600084815260200190815260200160002060060160016101000a81548160ff02191690831515021790555050505050565b600080829050600081511415612f42576000801b915050612f4b565b60208301519150505b919050565b600460009054906101000a900473ffffffffffffffffffffffffffffffffffffffff1673ffffffffffffffffffffffffffffffffffffffff163373ffffffffffffffffffffffffffffffffffffffff1614612fe0576040517f08c379a0000000000000000000000000000000000000000000000000000000008152600401612fd790614cc2565b60405180910390fd5b6040518060400160405280838152602001828152506000808573ffffffffffffffffffffffffffffffffffffffff1673ffffffffffffffffffffffffffffffffffffffff168152602001908152602001600020600082015181600001908051906020019061304f929190613d43565b50602082015181600101908051906020019061306c929190613d43565b50905050505050565b600061308082612f26565b905060008060003373ffffffffffffffffffffffffffffffffffffffff1673ffffffffffffffffffffffffffffffffffffffff1681526020019081526020016000206040518060400160405290816000820180546130dd9061479e565b80601f01602080910402602001604051908101604052809291908181526020018280546131099061479e565b80156131565780601f1061312b57610100808354040283529160200191613156565b820191906000526020600020905b81548152906001019060200180831161313957829003601f168201915b5050505050815260200160018201805461316f9061479e565b80601f016020809104026020016040519081016040528092919081815260200182805461319b9061479e565b80156131e85780601f106131bd576101008083540402835291602001916131e8565b820191906000526020600020905b8154815290600101906020018083116131cb57829003601f168201915b5050505050815250509050600060026000848152602001908152602001600020604051806101000160405290816000820180546132249061479e565b80601f01602080910402602001604051908101604052809291908181526020018280546132509061479e565b801561329d5780601f106132725761010080835404028352916020019161329d565b820191906000526020600020905b81548152906001019060200180831161328057829003601f168201915b505050505081526020016001820180546132b69061479e565b80601f01602080910402602001604051908101604052809291908181526020018280546132e29061479e565b801561332f5780601f106133045761010080835404028352916020019161332f565b820191906000526020600020905b81548152906001019060200180831161331257829003601f168201915b5050505050815260200160028201548152602001600382015481526020016004820160009054906101000a900473ffffffffffffffffffffffffffffffffffffffff1673ffffffffffffffffffffffffffffffffffffffff1673ffffffffffffffffffffffffffffffffffffffff1681526020016005820180546133b29061479e565b80601f01602080910402602001604051908101604052809291908181526020018280546133de9061479e565b801561342b5780601f106134005761010080835404028352916020019161342b565b820191906000526020600020905b81548152906001019060200180831161340e57829003601f168201915b505050505081526020016006820160009054906101000a900460ff161515151581526020016006820160019054906101000a900460ff161515151581525050905061347e82602001518260a00151613d28565b6134bd576040517f08c379a00000000000000000000000000000000000000000000000000000000081526004016134b49061481c565b60405180910390fd5b6000600383602001516040516134d391906149e2565b9081526020016040518091039020805480602002602001604051908101604052809291908181526020016000905b828210156136b157838290600052602060002090600502016040518060c00160405290816000820180546135349061479e565b80601f01602080910402602001604051908101604052809291908181526020018280546135609061479e565b80156135ad5780601f10613582576101008083540402835291602001916135ad565b820191906000526020600020905b81548152906001019060200180831161359057829003601f168201915b505050505081526020016001820160009054906101000a900473ffffffffffffffffffffffffffffffffffffffff1673ffffffffffffffffffffffffffffffffffffffff1673ffffffffffffffffffffffffffffffffffffffff1681526020016002820160009054906101000a900473ffffffffffffffffffffffffffffffffffffffff1673ffffffffffffffffffffffffffffffffffffffff1673ffffffffffffffffffffffffffffffffffffffff168152602001600382015481526020016004820160009054906101000a900460ff161515151581526020016004820160019054906101000a900460ff16151515158152505081526020019060010190613501565b50505050905060005b8151811015613708576136eb8282815181106136d9576136d86149f9565b5b60200260200101516000015187613d28565b156136f557613708565b808061370090614a57565b9150506136ba565b60016003856020015160405161371e91906149e2565b9081526020016040518091039020828154811061373e5761373d6149f9565b5b906000526020600020906005020160040160016101000a81548160ff021916908315150217905550505050505050565b600061377986612f26565b905060008060003373ffffffffffffffffffffffffffffffffffffffff1673ffffffffffffffffffffffffffffffffffffffff1681526020019081526020016000206040518060400160405290816000820180546137d69061479e565b80601f01602080910402602001604051908101604052809291908181526020018280546138029061479e565b801561384f5780601f106138245761010080835404028352916020019161384f565b820191906000526020600020905b81548152906001019060200180831161383257829003601f168201915b505050505081526020016001820180546138689061479e565b80601f01602080910402602001604051908101604052809291908181526020018280546138949061479e565b80156138e15780601f106138b6576101008083540402835291602001916138e1565b820191906000526020600020905b8154815290600101906020018083116138c457829003601f168201915b50505050508152505090506000600260008481526020019081526020016000206040518061010001604052908160008201805461391d9061479e565b80601f01602080910402602001604051908101604052809291908181526020018280546139499061479e565b80156139965780601f1061396b57610100808354040283529160200191613996565b820191906000526020600020905b81548152906001019060200180831161397957829003601f168201915b505050505081526020016001820180546139af9061479e565b80601f01602080910402602001604051908101604052809291908181526020018280546139db9061479e565b8015613a285780601f106139fd57610100808354040283529160200191613a28565b820191906000526020600020905b815481529060010190602001808311613a0b57829003601f168201915b5050505050815260200160028201548152602001600382015481526020016004820160009054906101000a900473ffffffffffffffffffffffffffffffffffffffff1673ffffffffffffffffffffffffffffffffffffffff1673ffffffffffffffffffffffffffffffffffffffff168152602001600582018054613aab9061479e565b80601f0160208091040260200160405190810160405280929190818152602001828054613ad79061479e565b8015613b245780601f10613af957610100808354040283529160200191613b24565b820191906000526020600020905b815481529060010190602001808311613b0757829003601f168201915b505050505081526020016006820160009054906101000a900460ff161515151581526020016006820160019054906101000a900460ff1615151515815250509050613b7782602001518260a00151613d28565b613bb6576040517f08c379a0000000000000000000000000000000000000000000000000000000008152600401613bad9061481c565b60405180910390fd5b604051806101000160405280898152602001888152602001878152602001868152602001826080015173ffffffffffffffffffffffffffffffffffffffff1681526020018260a00151815260200185151581526020018260e001511515815250600260008581526020019081526020016000206000820151816000019080519060200190613c45929190613d43565b506020820151816001019080519060200190613c62929190613d43565b50604082015181600201556060820151816003015560808201518160040160006101000a81548173ffffffffffffffffffffffffffffffffffffffff021916908373ffffffffffffffffffffffffffffffffffffffff16021790555060a0820151816005019080519060200190613cda929190613d43565b5060c08201518160060160006101000a81548160ff02191690831515021790555060e08201518160060160016101000a81548160ff0219169083151502179055509050505050505050505050565b60008180519060200120838051906020012014905092915050565b828054613d4f9061479e565b90600052602060002090601f016020900481019282613d715760008555613db8565b82601f10613d8a57805160ff1916838001178555613db8565b82800160010185558215613db8579182015b82811115613db7578251825591602001919060010190613d9c565b5b509050613dc59190613e09565b5090565b508054613dd59061479e565b6000825580601f10613de75750613e06565b601f016020900490600052602060002090810190613e059190613e09565b5b50565b5b80821115613e22576000816000905550600101613e0a565b5090565b6000604051905090565b600080fd5b600080fd5b6000819050919050565b613e4d81613e3a565b8114613e5857600080fd5b50565b600081359050613e6a81613e44565b92915050565b600060208284031215613e8657613e85613e30565b5b6000613e9484828501613e5b565b91505092915050565b600081519050919050565b600082825260208201905092915050565b60005b83811015613ed7578082015181840152602081019050613ebc565b83811115613ee6576000848401525b50505050565b6000601f19601f8301169050919050565b6000613f0882613e9d565b613f128185613ea8565b9350613f22818560208601613eb9565b613f2b81613eec565b840191505092915050565b6000819050919050565b613f4981613f36565b82525050565b600073ffffffffffffffffffffffffffffffffffffffff82169050919050565b6000613f7a82613f4f565b9050919050565b613f8a81613f6f565b82525050565b60008115159050919050565b613fa581613f90565b82525050565b6000610100820190508181036000830152613fc6818b613efd565b90508181036020830152613fda818a613efd565b9050613fe96040830189613f40565b613ff66060830188613f40565b6140036080830187613f81565b81810360a08301526140158186613efd565b905061402460c0830185613f9c565b61403160e0830184613f9c565b9998505050505050505050565b61404781613f6f565b811461405257600080fd5b50565b6000813590506140648161403e565b92915050565b600080fd5b600080fd5b7f4e487b7100000000000000000000000000000000000000000000000000000000600052604160045260246000fd5b6140ac82613eec565b810181811067ffffffffffffffff821117156140cb576140ca614074565b5b80604052505050565b60006140de613e26565b90506140ea82826140a3565b919050565b600067ffffffffffffffff82111561410a57614109614074565b5b61411382613eec565b9050602081019050919050565b82818337600083830152505050565b600061414261413d846140ef565b6140d4565b90508281526020810184848401111561415e5761415d61406f565b5b614169848285614120565b509392505050565b600082601f8301126141865761418561406a565b5b813561419684826020860161412f565b91505092915050565b6141a881613f90565b81146141b357600080fd5b50565b6000813590506141c58161419f565b92915050565b600080600080600060a086880312156141e7576141e6613e30565b5b60006141f588828901614055565b955050602086013567ffffffffffffffff81111561421657614215613e35565b5b61422288828901614171565b945050604086013567ffffffffffffffff81111561424357614242613e35565b5b61424f88828901614171565b935050606086013567ffffffffffffffff8111156142705761426f613e35565b5b61427c88828901614171565b925050608061428d888289016141b6565b9150509295509295909350565b6000806000606084860312156142b3576142b2613e30565b5b600084013567ffffffffffffffff8111156142d1576142d0613e35565b5b6142dd86828701614171565b935050602084013567ffffffffffffffff8111156142fe576142fd613e35565b5b61430a86828701614171565b925050604084013567ffffffffffffffff81111561432b5761432a613e35565b5b61433786828701614171565b9150509250925092565b60006020828403121561435757614356613e30565b5b600061436584828501614055565b91505092915050565b600060408201905081810360008301526143888185613efd565b9050818103602083015261439c8184613efd565b90509392505050565b6143ae81613f36565b81146143b957600080fd5b50565b6000813590506143cb816143a5565b92915050565b600080600080600060a086880312156143ed576143ec613e30565b5b600086013567ffffffffffffffff81111561440b5761440a613e35565b5b61441788828901614171565b955050602086013567ffffffffffffffff81111561443857614437613e35565b5b61444488828901614171565b9450506040614455888289016143bc565b9350506060614466888289016143bc565b925050608086013567ffffffffffffffff81111561448757614486613e35565b5b61449388828901614171565b9150509295509295909350565b600080604083850312156144b7576144b6613e30565b5b600083013567ffffffffffffffff8111156144d5576144d4613e35565b5b6144e185828601614171565b92505060206144f2858286016143bc565b9150509250929050565b600060c08201905081810360008301526145168189613efd565b90506145256020830188613f81565b6145326040830187613f81565b61453f6060830186613f40565b61454c6080830185613f9c565b61455960a0830184613f9c565b979650505050505050565b60006020828403121561457a57614579613e30565b5b600082013567ffffffffffffffff81111561459857614597613e35565b5b6145a484828501614171565b91505092915050565b600060808201905081810360008301526145c78187613efd565b905081810360208301526145db8186613efd565b905081810360408301526145ef8185613efd565b90506145fe6060830184613f9c565b95945050505050565b61461081613e3a565b82525050565b600060208201905061462b6000830184614607565b92915050565b60008060006060848603121561464a57614649613e30565b5b600061465886828701614055565b935050602084013567ffffffffffffffff81111561467957614678613e35565b5b61468586828701614171565b925050604084013567ffffffffffffffff8111156146a6576146a5613e35565b5b6146b286828701614171565b9150509250925092565b600080600080600060a086880312156146d8576146d7613e30565b5b600086013567ffffffffffffffff8111156146f6576146f5613e35565b5b61470288828901614171565b955050602086013567ffffffffffffffff81111561472357614722613e35565b5b61472f88828901614171565b9450506040614740888289016143bc565b9350506060614751888289016143bc565b9250506080614762888289016141b6565b9150509295509295909350565b7f4e487b7100000000000000000000000000000000000000000000000000000000600052602260045260246000fd5b600060028204905060018216806147b657607f821691505b602082108114156147ca576147c961476f565b5b50919050565b7f556e617574686f72697a65642041646d696e2100000000000000000000000000600082015250565b6000614806601383613ea8565b9150614811826147d0565b602082019050919050565b60006020820190508181036000830152614835816147f9565b9050919050565b7f5573657220416c72656164792045786973747321000000000000000000000000600082015250565b6000614872601483613ea8565b915061487d8261483c565b602082019050919050565b600060208201905081810360008301526148a181614865565b9050919050565b7f4c616e64207769746820676976656e20736572766579204e6f2e20697320616c60008201527f7265616479207265676973746572656420616e64207665726966696564210000602082015250565b6000614904603e83613ea8565b915061490f826148a8565b604082019050919050565b60006020820190508181036000830152614933816148f7565b9050919050565b7f596f7520617265206e6f7420746865204f574e45522100000000000000000000600082015250565b6000614970601683613ea8565b915061497b8261493a565b602082019050919050565b6000602082019050818103600083015261499f81614963565b9050919050565b600081905092915050565b60006149bc82613e9d565b6149c681856149a6565b93506149d6818560208601613eb9565b80840191505092915050565b60006149ee82846149b1565b915081905092915050565b7f4e487b7100000000000000000000000000000000000000000000000000000000600052603260045260246000fd5b7f4e487b7100000000000000000000000000000000000000000000000000000000600052601160045260246000fd5b6000614a6282613f36565b91507fffffffffffffffffffffffffffffffffffffffffffffffffffffffffffffffff821415614a9557614a94614a28565b5b600182019050919050565b7f4e6f7420417070726f7665642062792041646d696e2100000000000000000000600082015250565b6000614ad6601683613ea8565b9150614ae182614aa0565b602082019050919050565b60006020820190508181036000830152614b0581614ac9565b9050919050565b7f4e6f7420417070726f7665642062792053656c6c65722f20596f752100000000600082015250565b6000614b42601c83613ea8565b9150614b4d82614b0c565b602082019050919050565b60006020820190508181036000830152614b7181614b35565b9050919050565b7f4c616e64206973206e6f74207665726966696564210000000000000000000000600082015250565b6000614bae601583613ea8565b9150614bb982614b78565b602082019050919050565b60006020820190508181036000830152614bdd81614ba1565b9050919050565b7f4c616e64206973206e6f7420617661696c61626c6520666f722070757263686160008201527f7365210000000000000000000000000000000000000000000000000000000000602082015250565b6000614c40602383613ea8565b9150614c4b82614be4565b604082019050919050565b60006020820190508181036000830152614c6f81614c33565b9050919050565b7f556e617574686f72697a65642055736572210000000000000000000000000000600082015250565b6000614cac601283613ea8565b9150614cb782614c76565b602082019050919050565b60006020820190508181036000830152614cdb81614c9f565b905091905056fea26469706673582212207304b71477716027ab264c49b8c48332590077b65b9f57b00bf9ad610576099a64736f6c63430008090033",
  "immutableReferences": {},
  "source": "// SPDX-License-Identifier: MIT\r\npragma solidity >=0.7.0 < 0.9.0;\r\ncontract landRecords {\r\n    struct Admin {\r\n        string name;\r\n        string district;\r\n    }\r\n    struct User {\r\n        string name;\r\n        string docHash;\r\n        string district;\r\n        bool isVerified;\r\n    }\r\n    struct Land {\r\n        string serveyNo;\r\n        string location;\r\n        uint area;\r\n        uint purchaseEpoch;\r\n        address owner;\r\n        string district;\r\n        bool isVerified;\r\n        bool availableForSale;\r\n    }\r\n    \r\n    struct LandSell {\r\n        string serveyNo;\r\n        address owner;\r\n        address buyer;\r\n        uint price;\r\n        bool sellerApproval;\r\n        bool adminApproval;\r\n    }\r\n    \r\n    mapping(address => Admin) public admins;\r\n    mapping(address => User) public users;\r\n    mapping(bytes32 => Land) public lands;\r\n    // all districtwise sells\r\n    mapping(string => LandSell[]) public allSells;\r\n    \r\n    address superAdmin;\r\n    \r\n    constructor() {\r\n        // store address of superAdmin when contract is deployed\r\n        superAdmin = msg.sender;\r\n    }\r\n    \r\n    function compareStrings(string memory str1, string memory str2) private pure returns(bool) {\r\n        return(keccak256(bytes(str1)) == keccak256(bytes(str2)));\r\n    }\r\n    \r\n    function stringToBytes32(string memory source) public pure returns (bytes32 result) {\r\n        bytes memory tempEmptyStringTest = bytes(source);\r\n        if (tempEmptyStringTest.length == 0) {\r\n            return 0x0;\r\n        }\r\n        assembly {\r\n                result := mload(add(source, 32))\r\n        }\r\n    }\r\n    \r\n    function createModifyAdmin(address _address, string memory _name, string memory _district) public {\r\n        // if superAdmin is accessing function he can add/overwrite exiting data\r\n        require(msg.sender == superAdmin, \"Unauthorized User!\");\r\n        admins[_address] = Admin(_name, _district);\r\n    }\r\n    \r\n    function regUser(string memory _name, string memory _docHash, string memory _district) public {\r\n        User memory temp = users[msg.sender];\r\n        // if account is not verified then only create account/ change data\r\n        require(temp.isVerified == false, \"User Already Exists!\");\r\n        users[msg.sender] = User(_name, _docHash, _district, false);\r\n    }\r\n    \r\n    function modifyUser(address _address, string memory _name, string memory _docHash, string memory _district, bool _isVerified) public {\r\n        Admin memory temp = admins[msg.sender];\r\n        // 1) check if admin exist (if admin exists then district also exits) 2) is he admin of same district\r\n        // *make sure that user can't able to set null/ empty value for district\r\n        require(compareStrings(temp.district, _district), \"Unauthorized Admin!\");\r\n        users[_address] = User(_name, _docHash, _district, _isVerified);\r\n    }\r\n    \r\n    function regLand(string memory _serveyNo, string memory _location, uint _area, uint _purchaseEpoch, string memory _district) public {\r\n        bytes32 serveyNoInB32 = stringToBytes32(_serveyNo);\r\n        Land memory temp = lands[serveyNoInB32];\r\n        User memory temp2 = users[msg.sender];\r\n        // if land is not verified then only register/change data\r\n        require(temp.isVerified == false && temp2.isVerified == true, \"Land with given servey No. is already registered and verified!\");\r\n        // *make sure that user can't able to set null/ empty value for district\r\n        lands[serveyNoInB32] = Land(_serveyNo, _location, _area, _purchaseEpoch, msg.sender, _district, false, false);\r\n    }\r\n    \r\n    function modifyLand(string memory _serveyNo, string memory _location, uint _area, uint _purchaseEpoch, bool _isVerified) public {\r\n        bytes32 serveyNoInB32 = stringToBytes32(_serveyNo);\r\n        Admin memory temp = admins[msg.sender];\r\n        Land memory temp2 = lands[serveyNoInB32];\r\n        require(compareStrings(temp.district, temp2.district), \"Unauthorized Admin!\");\r\n        // admin can change everything except owner, district, availableForSale (this is intentional behaviour)\r\n        lands[serveyNoInB32] = Land(_serveyNo, _location, _area, _purchaseEpoch, temp2.owner, temp2.district, _isVerified, temp2.availableForSale);\r\n    }\r\n    \r\n    function makeAvailable(string memory _serveyNo) public {\r\n        bytes32 serveyNoInB32 = stringToBytes32(_serveyNo);\r\n        Land memory temp = lands[serveyNoInB32];\r\n        require(temp.owner == msg.sender, \"You are not the OWNER!\");\r\n        require(temp.isVerified == true, \"Land is not verified!\");\r\n        // make land available for sale\r\n        lands[serveyNoInB32].availableForSale = true;\r\n    }\r\n    \r\n    function cancelAvailable(string memory _serveyNo) public {\r\n        bytes32 serveyNoInB32 = stringToBytes32(_serveyNo);\r\n        Land memory temp = lands[serveyNoInB32];\r\n        require(temp.owner == msg.sender, \"You are not the OWNER!\");\r\n        // cancel availability of land for sale\r\n        lands[serveyNoInB32].availableForSale = false;\r\n    }\r\n    \r\n    function requestToBuy(string memory _serveyNo, uint _price) public{\r\n        bytes32 serveyNoInB32 = stringToBytes32(_serveyNo);\r\n        Land memory temp = lands[serveyNoInB32];\r\n        require(lands[serveyNoInB32].availableForSale == true, \"Land is not available for purchase!\");\r\n        allSells[temp.district].push(LandSell(_serveyNo, temp.owner, msg.sender, _price, false, false));\r\n        lands[serveyNoInB32].availableForSale = false;\r\n    }\r\n    \r\n    function approveSell(string memory _serveyNo) public {\r\n        bytes32 serveyNoInB32 = stringToBytes32(_serveyNo);\r\n        Land memory temp = lands[serveyNoInB32];\r\n        require(temp.owner == msg.sender, \"You are not the OWNER!\");\r\n        LandSell[] memory districtSells = allSells[temp.district];\r\n        uint i=0;\r\n        for(;i<districtSells.length; i++){\r\n            if(compareStrings(districtSells[i].serveyNo, _serveyNo)){\r\n                break;\r\n            }\r\n        }\r\n        allSells[temp.district][i].sellerApproval = true;\r\n    }\r\n    \r\n    function approveAdmin(string memory _serveyNo) public {\r\n        bytes32 serveyNoInB32 = stringToBytes32(_serveyNo);\r\n        Admin memory temp = admins[msg.sender];\r\n        Land memory temp2 = lands[serveyNoInB32];\r\n        require(compareStrings(temp.district, temp2.district), \"Unauthorized Admin!\");\r\n        LandSell[] memory districtSells = allSells[temp.district];\r\n        uint i=0;\r\n        for(;i<districtSells.length; i++){\r\n            if(compareStrings(districtSells[i].serveyNo, _serveyNo)){\r\n                break;\r\n            }\r\n        }\r\n        allSells[temp.district][i].adminApproval = true;\r\n    }\r\n    \r\n    function confirmSell(string memory _serveyNo) public {\r\n        bytes32 serveyNoInB32 = stringToBytes32(_serveyNo);\r\n        Land memory temp = lands[serveyNoInB32];\r\n        require(temp.owner == msg.sender, \"You are not the OWNER!\");\r\n        LandSell[] memory districtSells = allSells[temp.district];\r\n        uint i=0;\r\n        for(;i<districtSells.length; i++){\r\n            if(compareStrings(districtSells[i].serveyNo, _serveyNo)){\r\n                break;\r\n            }\r\n        }\r\n        require(allSells[temp.district][i].adminApproval == true, \"Not Approved by Admin!\");\r\n        require(allSells[temp.district][i].sellerApproval == true, \"Not Approved by Seller/ You!\");\r\n        lands[serveyNoInB32].owner = allSells[temp.district][i].buyer;\r\n        delete allSells[temp.district][i];\r\n    }\r\n}",
  "sourcePath": "C:\\Users\\Rajan\\Desktop\\Land-Registry\\Land-Registry-main\\contracts\\landRegistry.sol",
  "compiler": {
    "name": "solc",
    "version": "0.8.9+commit.e5eed63a.Emscripten.clang"
  },
  "schemaVersion": "3.4.3",
  "updatedAt": "2021-10-24T17:35:41.792Z",
  "networkType": "ethereum",
  "devdoc": {
    "kind": "dev",
    "methods": {},
    "version": 1
  },
  "userdoc": {
    "kind": "user",
    "methods": {},
    "version": 1
  }
}